:0300000002010FEB
:0C010F00787FE4F6D8FD758107020156E8
:10019B0041542B43574A41503D226968222C227906
:1001AB006978696E67313233343536220041542B0E
:1001BB0043574D4F44453D330041542B525354004C
:1001CB0041542B43575141500041542B43495053F9
:1001DB00544152543D22544350222C223139322E59
:1001EB003136382E312E313034222C353030300030
:1001FB0041542B43495053454E440041542B4349E2
:10020B00504D4F44453D310041542B434950434CD5
:04021B004F534500F8
:100003004300136968004D0004796978696E6731AC
:100013003233343536004E00E63139322C3136383E
:100023002C312C313034004200111388440000007D
:10003300000000604A0016474554202F20485454BE
:10004300502F312E310D0A486F73743A20313932F3
:100053002E3136382E312E3130340D0A55736572F8
:100063002D4167656E743A206162630D0A436F6EBA
:100073006E656374696F6E3A20636C6F73650D0A06
:100083000060860060504F5354202F204854545032
:100093002F312E310D0A486F73743A203139322EC5
:1000A3003136382E312E3130340D0A557365722DA9
:1000B3004167656E743A206162630D0A436F6E7423
:1000C300656E742D747970653A20746578742F7039
:1000D3006C61696E0D0A436F6E74656E742D4C65A9
:1000E3006E6774683A31300D0A0D0A6162636465A4
:1000F300666768696A0D0A436F6E6E656374696F3C
:0B0103006E3A20636C6F73650D0A00FC
:10021F00EE706BEF14B40700506490023775F00363
:10022F00A4C58325F0C5837302024C020254020257
:10023F006502026D02027502027D0202857BFF7A62
:10024F0001799B803F7BFF7A0179B81200007BFF19
:10025F007A0179C4802E7BFF7A0179CB80267BFFD0
:10026F007A0179D4801E7BFF7A0179FB80167BFFA0
:10027F007A027906800E7BFF7A02791380067BFF64
:0B028F007A0179C4120000E4FEFF2297
:10035300EE7018EF24FE600B0470107B017A0079B5
:1003630016800E7B017A00796080067BFF7A017923
:07037300C41200007F3022DC
:04037A007F107E274B
:10037E00EF1FAA0670011E4A60107C007DFAED1D6B
:0A038E00AA0470011C4A60E880F424
:010398002242
:10029A00E49000F4F0A3F0120399E49000F4F0A3C0
:1002AA00F09000F4E0FEA3E0FFC39407EE648094AC
:1002BA0080501E12021F9000F6EEF0A3EFF0120318
:1002CA007A9000F5E004F070D89000F4E004F08031
:1002DA00D07F017E0012035312037A7F027E00123E
:0702EA00035312037A80B3F5
:0803AD008F993099FDC29922DD
:1002F1009000F8EBF0A3EAF0A3E9F09000F8E0FB3E
:10030100A3E0FAA3E0F912032460179000F8A3E434
:1003110075F00112033DA9F0FA120324FF1203AD97
:0303210080D9225E
:10039900E4F587759850758921758BFA758DFAD2B0
:0403A9008ED2AF221F
:10011B0002029AE493A3F8E493A34003F68001F25E
:10012B0008DFF48029E493A3F85407240CC8C333E5
:10013B00C4540F4420C8834004F456800146F6DFB4
:10014B00E4800B0102040810204080900003E47E41
:10015B00019360BCA3FF543F30E509541FFEE493A9
:10016B00A360010ECF54C025E060A840B8E493A370
:10017B00FAE493A3F8E493A3C8C582C8CAC583CA9B
:10018B00F0A3C8C582C8CAC583CADFE9DEE780BE53
:01010E0000F0
:10032400BB010689828A83E0225002E722BBFE02D7
:09033400E32289828A83E493220A
:10033D00A3F8E0C5F025F0F0E58215827002158373
:06034D00E0C838F0E822D0
:00000001FF
