:0300000002067D78
:0C067D00787FE4F6D8FD7581070206C402
:1000460041542B43574A41503D226968222C22795C
:100056006978696E67313233343536220041542B64
:1000660043574D4F44453D330041542B435751416F
:10007600500041542B43495053544152543D22544D
:100086004350222C223139322E3136382E312E3140
:100096003030222C353030300041542B43495053F8
:1000A600454E440041542B4349504D4F44453D3144
:1000B6000041542B434950434C4F53450041542B68
:1000C6005253540057656C636F6D6520746F204CF6
:1000D60053452053545544494F2C0D0A004F4B00AD
:1000E6004154004F4B2C537563636565642045731B
:1000F6007461626C69736820636F6E6E65637469A0
:100106006F6E207769746820455350383236360D45
:100116000A006E6F206368616E6765004F4B2C4561
:1001260053503832363620686173206265656E201A
:100136007365742061732053746174696F6E204D0A
:100146006F64650D0A004F4B2C53756363656564D8
:100156002065737461626C69736820636F6E6E6587
:100166006374696F6E2077697468205769466920E1
:1001760041500D0A004C696E6B6564004F4B2C5361
:100186007563636565642065737461626C69736821
:1001960020636F6E6E656374696F6E20776974682D
:1001A600205443502073657665720D0A0053454E00
:1001B60044204F4B00436F6E67726174756C6174B7
:1001C600696F6E732C20596F752063616E2073659D
:1001D6006E6420636F6D6D616E6473207468726FF8
:1001E60075676820544350207365766572206E6F7C
:1001F600770D0A00746F6F6F0A0077616E6764612E
:0C02060079650D0A006F6B0065727200D4
:1004AE0043010D6968004D0004796978696E673102
:1004BE003233343536004E01E03139322C31363894
:1004CE002C312C3130300042010B138844000000D7
:1004DE00000000604A0110474554202F2048545414
:1004EE00502F312E310D0A486F73743A2031393244
:1004FE002E3136382E312E3130300D0A557365724D
:10050E002D4167656E743A206162630D0A436F6E0A
:10051E006E656374696F6E3A20636C6F73650D0A56
:10052E00006086015A504F5354202F204854545087
:10053E002F312E310D0A486F73743A203139322E15
:10054E003136382E312E3130300D0A557365722DFD
:10055E004167656E743A206162630D0A436F6E7473
:10056E00656E742D747970653A20746578742F7089
:10057E006C61696E0D0A436F6E74656E742D4C65F9
:10058E006E6774683A31300D0A0D0A6162636465F4
:10059E00666768696A0D0A436F6E6E656374696F8C
:0F05AE006E3A20636C6F73650D0A004101EE0019
:10078000E4900600F0A3F078027C067D017BFF7AFE
:1007900002790BFE7F0312044378057C067D017B02
:1007A000FF7A02790E7E007F04120443E4FFFE7B91
:1007B000017A0179EF12002674ED2FF58274013E63
:1007C000F583E0B46F1174EE2FF58274013EF5836A
:0907D000E0B46B037F01227F30CD
:0107D90022FD
:10070900EE706AEF14B40700506390072175F00387
:10071900A4C58325F0C5837302073602073E020785
:100729004E02075602075E02076602076E7BFF7AD2
:10073900007946803E7BFF7A0079631209F47F6471
:100749007E000200037BFF7A00796F80267BFF7AA7
:10075900007978801E7BFF7A00799F80167BFF7A6B
:100769000079AA800E7BFF7A0079B780067BFF7A31
:070779000079C31209F4220C
:10096100EE7018EF24FE600B0470107B017A0179A0
:1009710010800E7B017A01795A80067BFF7A00791B
:05098100C31209F4227D
:10000300EF1FAA0670011E4A60107C007DFAED1DE9
:0A001300AA0470011C4A60E880F4A2
:01001D0022C0
:10021200D2A612090AD2AC75AF01D2AF7FE87E0333
:100222001209A87B017A0079111208D77BFF7A00A4
:1002320079CA1208D71209D012089F401E1209D09B
:100242007BFF7A0079E612081F7FF47E011209A86B
:100252007B017A0079111208D780DD1209D07BFF69
:100262007A0079E91208D7C2C812089F402E1209F3
:10027200D07F027E001207097FF47E011209A87B5B
:10028200017A0079111208D77BFF7A0179181208D6
:10029200A550D67B017A0079111208D71209D07BBA
:1002A200FF7A017922803212089F40321209D07FF0
:1002B200017E001207097FD07E071209A87BFF7A10
:1002C2000179181208A5500B7B017A0079111208E6
:1002D200D7800B7B017A0079111208D780C9C2C975
:1002E2001209D07BFF7A01794C80227BFF7A017957
:1002F2007B1208A5401C1209D07F047E0012070958
:100302007FB87E0B1209A87B017A0079111208D7F7
:1003120080D91209D07BFF7A0179821208D7D2C81C
:10032200D2C97F067E001207097FE87E031209A860
:100332007BFF7A0179B31208A5402A1209D07F0502
:100342007E001207097FF47E011209A87F017E0058
:100352001209617FF47E011209A87B017A007911EA
:100362001208D780CB1209D07BFF7A0179BB020831
:01037200D7B3
:10093900E49005EFF0A3F01202121209867BFF7A08
:100949000179FA1208D77BFF7A0279001208D77F5A
:08095900E87E0312000380EEAA
:06089F007BFF7A0079E303
:1008A5009005F1EBF0A3EAF0A3E9F09005F1E0F98A
:1008B500A3E0FAA3E09005F7C9F0A3EAF0A3E9F0F5
:1008C5007B017A0079111205BEE94A4B6002D322F9
:0208D500C3223C
:0F09D0007FFA900011E4F0A3DFFCE49001EEF059
:0109DF0022F5
:030023000208626E
:10086200C0E0C083C082C0D0C2AC309820C2989091
:1008720001EEE02411F582E43400F583E599F0906D
:1008820001EEE004F0E0D394FA4002E4F030990281
:0D089200C299D2ACD0D0D082D083D0E03259
:030043000207DAD7
:1007DA00C0E0C083C082C0D075AF00E59A30E02186
:1007EA00539AFE9001EEE02411F582E43400F58379
:1007FA00E59BF09001EEE004F0E0D394FA4002E4C5
:10080A00F0E59A30E103539AFD75AF01D0D0D0825A
:05081A00D083D0E032A4
:10098600E4F594F593F592F591F596F595F5B2F5AE
:10099600B1F5B4F5B3F5CAF5C9F5CCF5CBF5E2F585
:0209A600E1224C
:0309F40002081FD7
:10090A0053877F759850438E40538EFE53890F4309
:10091A008920758BFD758DFDC2ABD28E759A5043B9
:0F092A008E0475AF0175D7E675D6FE438E102289
:08003B008F993099FDC2992252
:1008D7009005F1EBF0A3EAF0A3E9F09005F1E0FB56
:1008E700A3E0FAA3E0F912046960179005F1A3E405
:1008F70075F001120482A9F0FA120469FF12003B95
:0309070080D92272
:0B09E0008F9BE59A30E1FB539AFD224B
:10081F009005F1EBF0A3EAF0A3E9F0E4F5AF900552
:10082F00F1E0FBA3E0FAA3E0F91204696017900569
:10083F00F1A3E475F001120482A9F0FA120469FF22
:10084F001209E080D97F0D1209E07F0A1209E075C5
:03085F00AF0122C4
:04001E007F02DFFE80
:0100220022BB
:0809EB007F127EEBDEFEDFFC53
:0109F30022E1
:1009A800AD07AC06ED1DAE0470011C4E60051209C2
:0409B800EB80F122BD
:1009BC00AD07AC06ED1DAE0470011C4E60051200B7
:0409CC001E80F12276
:10068900020939E493A3F8E493A34003F68001F245
:1006990008DFF48029E493A3F85407240CC8C33372
:1006A900C4540F4420C8834004F456800146F6DF41
:1006B900E4800B01020408102040809004AEE47E1F
:1006C900019360BCA3FF543F30E509541FFEE49336
:1006D900A360010ECF54C025E060A840B8E493A3FD
:1006E900FAE493A3F8E493A3C8C582C8CAC583CA28
:1006F900F0A3C8C582C8CAC583CADFE9DEE780BEE0
:0105BD00003D
:10037300E709F608DFFA8046E709F208DFFA803E6C
:1003830088828C83E709F0A3DFFA8032E309F60859
:10039300DFFA8078E309F208DFFA807088828C83C1
:1003A300E309F0A3DFFA806489828A83E0A3F60875
:1003B300DFFA805889828A83E0A3F208DFFA804C4F
:1003C30080D280FA80C680D4806980F28033801026
:1003D30080A680EA809A80A880DA80E280CA80338F
:1003E30089828A83ECFAE493A3C8C582C8CCC58307
:1003F300CCF0A3C8C582C8CCC583CCDFE9DEE780D7
:100403000D89828A83E493A3F608DFF9ECFAA9F055
:10041300EDFB2289828A83ECFAE0A3C8C582C8CCAB
:10042300C583CCF0A3C8C582C8CCC583CCDFEADEC4
:10043300E880DB89828A83E493A3F208DFF980CC26
:1004430088F0EF60010E4E60C388F0ED2402B4041F
:100453000050B9F582EB2402B4040050AF232345C6
:0604630082239003C37325
:10046900BB010689828A83E0225002E722BBFE0291
:09047900E32289828A83E49322C4
:10048200A3F8E0C5F025F0F0E5821582700215832D
:06049200E0C838F0E8228A
:10002600E4FFFE120469600C0FEF70010E09E9701F
:05003600F20A80EF2238
:1005BE009005F4EBF0A3EAF0A3E9F0A3E0FBA3E0CF
:1005CE00FAA3E0F9120469700302066A9005F4E0DA
:1005DE00FBA3E0FAA3E0F912046970030206769019
:1005EE0005F7E0F9A3E0FAA3E0A3C9F0A3EAF0A3AC
:1005FE00E9F09005F4A3E0FAA3E0F99005FDEBF025
:10060E00A3EAF0A3E9F09005FAE0FBA3E0FAA3E079
:10061E00F9120469FF60269005FDE0FBA3E0FAA342
:10062E00E0F91204696F70159005FB75F001120464
:10063E00989005FEE475F00112049880C99005FAB1
:10064E00E0FBA3E0FAA3E0F91204697002800D90BA
:10065E0005F5E475F0011204980205DA9005F4E050
:0F066E00FBA3E0FAA3E0F9227B007A00790022D7
:10049800C5F0F8A3E028F0C5F0F8E58215827002EF
:0604A8001583E038F0228C
:00000001FF
