:03000000020912E0
:0C091200787FE4F6D8FD758121020959B8
:10056B0041542B43574A41503D226968222C227932
:10057B006978696E67313233343536220041542B3A
:10058B0043574D4F44453D330041542B4357514145
:10059B00500041542B43495053544152543D225423
:1005AB004350222C223139322E3136382E312E3116
:1005BB003030222C353030300041542B43495053CE
:1005CB00454E440041542B4349504D4F44453D311A
:1005DB000041542B434950434C4F53450041542B3E
:1005EB005253540057656C636F6D6520746F204CCC
:1005FB0053452053545544494F2C0D0A004F4B0083
:10060B00746865207769666920636F6E6E656374C5
:10061B00696E670D0A004C696E6B656400BAC3CFD7
:10062B00F1B3F6C1CBD2BBB5E3CECACCE2A3ACC11E
:10063B00ACBDD3B2BBC9CFC1CB0D0A00436F6E6744
:10064B00726174756C6174696F6E732C20596F7560
:10065B002063616E2073656E6420636F6D6D616ED8
:10066B006473207468726F756768205443502073ED
:10067B0065766572206E6F770D0A006E6F2063686A
:10068B00616E676500414C52454159002564003E3F
:10069B00000041542B434950534E45443D0000004C
:0606AB0000000000000049
:1006B10043010B4852004B00043132333435363795
:1006C100383930004E01BF3139322C3136382C31B6
:1006D1002C31303000420109138844000000000031
:1006E10000603D010E474554202F74657374204806
:1006F1005454502F312E310D0A486F73743A203102
:1007010039322E3136382E312E3130300D0A5573B3
:1007110065722D4167656E743A206162630D0A0D41
:100721000A006073014B504F5354202F20485454FA
:10073100502F312E310D0A486F73743A20313932FE
:100741002E3136382E312E3130300D0A5573657207
:100751002D4167656E743A206162630D0A436F6EC5
:1007610074656E742D747970653A20746578742F90
:10077100706C61696E0D0A436F6E74656E742D4CF9
:10078100656E6774683A31300D0A0D0A61626364FF
:1007910065666768696A0D0A004101BE004101CDC5
:0107A1000057
:100AA600EE706AEF14B407005063900ABE75F00347
:100AB600A4C58325F0C58373020AD3020ADB020AA2
:100AC600EB020AF3020AFB020B03020B0B7BFF7A13
:100AD60005796B803E7BFF7A057988120E357F6437
:100AE6007E000200077BFF7A05799480267BFF7AD9
:100AF60005799D801E7BFF7A0579C480167BFF7A77
:100B06000579CF800E7BFF7A0579DC80067BFF7A3C
:070B16000579E8120E3522FB
:100D9D00EE7018EF24FE600B0470107B017A017960
:100DAD000E800E7B017A01794B80067BFF7A0579E7
:050DBD00E8120E3522D2
:040003007FE87E0311
:10000700EF1FAA0670011E4A60107C007DFAED1DE5
:0A001700AA0470011C4A60E880F49E
:0100210022BC
:10099E00D2A6120D47D2AC75AF01D2AF7FB87E0B87
:1009AE00120DE47B017A00790F120CB37BFF7A05EE
:1009BE0079EF120CB3120E0C7F02120A227F011273
:1009CE000A2240127F107E271200077BFF7A0679DB
:1009DE000B120CB380E7C2C87BFF7A0679087F063C
:1009EE007E00120A2A7BFF7A0679217F047E00128E
:1009FE000A2A40127BFF7A067928120CB37F107EEA
:100A0E002712000780DFC2C9120E0C7BFF7A06790F
:040A1E0047020CB3CC
:080A22007BFF7A0679087E00D3
:100A2A009005FFEEF0A3EFF0A3EBF0A3EAF0A3E941
:010A3A00F0CB
:100A3B00E4A3F0A3F0900601E0FBA3E0FAA3E0F936
:100A4B00120CE6404C120E0C9005FFE0FEA3E0FFEB
:100A5B00120AA67F887E13120DE47B017A00790FB0
:100A6B00120CB37BFF7A067990120CE6C0D07BFF99
:100A7B007A067986120CE6D0F072F74014900604D1
:100A8B00E475F0011204BAFEE5F064054E70A68021
:0A0A9B0005120E0CD322120E0CC33C
:010AA500222E
:080B8800900615EEF0A3EFF05A
:100B9000781B7C067D017BFF7A06799D7E007F14A1
:100BA00012047B9005D174FFF0A37406F0A3749730
:100BB000F0900616E02402FE900615E03400900541
:100BC000D4F0A3CEF07B017A0679171200AB900621
:100BD000327401F0A37406F0A37417F07B017A0657
:0E0BE000791B120B1D7B017A06791B020C3368
:100862009005F8EEF0A3EFF0A3EBF0A3EAF0A3E912
:01087200F095
:10087300E4A3F0A3F0FFFE1200269001BEEFF07B8D
:10088300FF7A0679217F047E00120A2A40127BFF39
:100893007A067928120CB37F107E2712000780DFB7
:1008A300C2C9D2CA7BFF7A06799A7F057E00120AF3
:1008B3002A1200039005F8E0FEA3E0FFEE7029EF93
:1008C30024FE60100470211200037B007A0079007B
:1008D3007F0180101200039005FAE0FBA3E0FAA366
:1008E300E0F97F027E0080097B007A007900E4FF53
:1008F300FE120D9DC2CA7FD07E071200077B017ACC
:0E09030000790F120CB37F887E13120007D309
:0109110022C3
:100D1800E49005F6F0A3F012099E120DC27B007A4A
:100D28000079007F017E001208621200037BFF7ABF
:0F0D380006799C7F027E0012086212000380DEA3
:100CE600900606EBF0A3EAF0A3E9F0900606E0F919
:100CF600A3E0FAA3E090060CC9F0A3EAF0A3E9F09A
:100D06007B017A00790F1207A3E94A4B6002D322CE
:020D1600C322F6
:0F0E0C007FFA90000FE4F0A3DFFCE49001CDF03B
:010E1B0022B4
:03002300020C7656
:100C7600C0E0C083C082C0D0C2AC309820C2989079
:100C860001CDE0240FF582E43400F583E599F09078
:100C960001CDE004F0E0D394FA4002E4F03099028A
:0D0CA600C299D2ACD0D0D082D083D0E03241
:03004300020BEEBF
:100BEE00C0E0C083C082C0D075AF00E59A30E0216E
:100BFE00539AFE9001CDE0240FF582E43400F58384
:100C0E00E59BF09001CDE004F0E0D394FA4002E4CD
:100C1E00F0E59A30E103539AFD75AF01D0D0D08242
:050C2E00D083D0E0328C
:100DC200E4F594F593F592F591F596F595F5B2F56E
:100DD200B1F5B4F5B3F5CAF5C9F5CCF5CBF5E2F545
:020DE200E1220C
:030E3500020C3379
:100D470053877F759850438E40538EFE53890F43C8
:100D57008920758BFD758DFDC2ABD28E759A504378
:0F0D67008E0475AF0175D7E675D6FE438E102248
:08003B008F993099FDC2992252
:100CB300900606EBF0A3EAF0A3E9F0900606E0FB4A
:100CC300A3E0FAA3E0F91204A16017900606A3E4D7
:100CD30075F0011204D0A9F0FA1204A1FF12003B2F
:030CE30080D92293
:0B0E1C008F9BE59A30E1FB539AFD220A
:100C3300900606EBF0A3EAF0A3E9F0E4F5AF900623
:100C430006E0FBA3E0FAA3E0F91204A16017900603
:100C530006A3E475F0011204D0A9F0FA1204A1FF6F
:100C6300120E1C80D97F0D120E1C7F0A120E1C75EA
:030C7300AF0122AC
:040E30007F02DFFE60
:010E3400229B
:080E27007F127EEBDEFEDFFC12
:010E2F0022A0
:100DE400AD07AC06ED1DAE0470011C4E6005120E7D
:040DF4002780F12241
:100DF800AD07AC06ED1DAE0470011C4E6005120E69
:040E08003080F12223
:10091E00020D18E493A3F8E493A34003F68001F2CA
:10092E0008DFF48029E493A3F85407240CC8C333DA
:10093E00C4540F4420C8834004F456800146F6DFA9
:10094E00E4800B01020408102040809006B1E47E82
:10095E00019360BCA3FF543F30E509541FFEE4939E
:10096E00A360010ECF54C025E060A840B8E493A365
:10097E00FAE493A3F8E493A3C8C582C8CAC583CA90
:10098E00F0A3C8C582C8CAC583CADFE9DEE780BE48
:0107A2000056
:1003AB00E709F608DFFA8046E709F208DFFA803E34
:1003BB0088828C83E709F0A3DFFA8032E309F60821
:1003CB00DFFA8078E309F208DFFA807088828C8389
:1003DB00E309F0A3DFFA806489828A83E0A3F6083D
:1003EB00DFFA805889828A83E0A3F208DFFA804C17
:1003FB0080D280FA80C680D4806980F280338010EE
:10040B0080A680EA809A80A880DA80E280CA803356
:10041B0089828A83ECFAE493A3C8C582C8CCC583CE
:10042B00CCF0A3C8C582C8CCC583CCDFE9DEE7809E
:10043B000D89828A83E493A3F608DFF9ECFAA9F01D
:10044B00EDFB2289828A83ECFAE0A3C8C582C8CC73
:10045B00C583CCF0A3C8C582C8CCC583CCDFEADE8C
:10046B00E880DB89828A83E493A3F208DFF980CCEE
:10047B0088F0EF60010E4E60C388F0ED2402B404E7
:10048B000050B9F582EB2402B4040050AF2323458E
:06049B0082239003FB73B5
:1004A100BB010689828A83E0225002E722BBFE0259
:0904B100E32289828A83E493228C
:1004BA00C5F0F8A3E028F0C5F0F8E58215827002CD
:0604CA001583E038F0226A
:1004D000A3F8E0C5F025F0F0E582158270021583DF
:0604E000E0C838F0E8223C
:10004600E50824D1F582E43405F583E0050822901D
:1000560005CE3007039005D1E475F001120525029F
:1000660004A12000E97F2ED2008018EF540F2490BF
:10007600D43440D4FF30040BEF24BFB41A0050032D
:100086002461FFE50960021509050CE50C700205FF
:100096000B30070E9005CEE475F001120525EF0230
:1000A6000513020D767403D2078003E4C207F50830
:1000B6009005CE12053CE4F509F50BF50CE5096053
:1000C600077F2012008980F5750AFFC201C200C2AF
:1000D60002C203C205C206C208120055FF700D30E7
:1000E60007057F0012009AAF0CAE0B22B4255FC243
:1000F600D5C204120055FF24D0B40A00501A75F078
:100106000A780930D50508B6FF0106C6A426F620EA
:10011600D5047002D20380D924CFB41A00EF50045C
:10012600C2E5D20402029BD20180C6D20080C0D2B0
:100136000280BCD2D580BAD20580B47F2012008955
:100146002002077401B5090040F1120046FF1200B3
:10015600890200C3D208D2068095120046FB12001F
:1001660046FA120046F94A4B7006796C7A037BFF11
:1001760020022EE509602A7E008E82758300120415
:10018600E660060EEE650A70F0C2D5EBC0E0EAC086
:10019600E0E9C0E0EE1202E2D0E0F9D0E0FAD0E009
:1001A600FB1204A1FF60AAEBC0E0EAC0E0E9C0E0F0
:1001B600120089D0E02401F9D0E03400FAD0E0FB47
:1001C600E50A0460DCD50AD980877BFF7A0279DEEE
:1001D600D202809C791080027908C206C208800883
:1001E600D2D5790A8004790AC2D5E50A047002F5E7
:1001F6000AE4FAFDFEFF120046FC7B0820011312FA
:100206000046FD7B1030000A120046FE120046FF33
:100216007B20EC3382D592D55013C3E43000069F81
:10022600FFE49EFEE42001039DFDE49CFCE4CBF884
:10023600C201EC700CCFCECDCCE824F8F870F38078
:1002460017C3EF33FFEE33FEED33FDEC33FCEB3338
:10025600FB994002FB0FD8E9EB300105F8D0E0C46A
:1002660048B201C0E00AEC4D4E4F78207B0070C2C8
:10027600EAB50A0040BCC0E01202E4D0F0D0E020AB
:100286000104C4C0E0C4B201C0F0120072D0F0D5BF
:10029600F0EB0200C312054501605301DA58013143
:1002A6004C012D4201DE4F01E64401E64901464379
:0802B60001EC5501D04601D016
:1002BE004501D047038C5001352D01392E015C2BA1
:1002CE00013D23015A2003752A00F5480000015410
:1002DE003F3F3F00790AA2D5200314300509B9101B
:1002EE00020404B9080104A2D5200602500104201C
:1002FE0002689202B509005034C0E07F2030031925
:10030E007F30A20272067205500F12033BC202C268
:10031E0006C205C2087F30800F300503E9C0E01227
:10032E000089300503D0E0F9D0E0B509CC300517CF
:10033E007F30B9100C1200897F583004077F788007
:10034E0003B908031200893002057F2D0200897F50
:10035E00202008F87F2B2006F322920280CF286EF1
:10036E00756C6C2900D2011200463001F8C201787A
:10037E000930D50108F60200F52D504349581200F8
:10038E00462403B405004001E49003879312007ADB
:0D039E00743A12007AD2037509040201DAE4
:100B1D0090062FEBF0A3EAF0A3E9F0900635EBF089
:100B2D00A3EAF0A3E9F090062FE0FBA3E475F00132
:100B3D001204D0A9F0FA1204A170EB90063074FFE4
:100B4D00F5F01204BA900632E0FBA3E475F0011241
:100B5D0004D0A9F0FA1204A1FF90062FE0FBA3E444
:100B6D0075F0011204D0A9F0FAEF12051370D690AA
:0B0B7D000635E0FBA3E0FAA3E0F9223C
:10002600E4FFFE1204A1600C0FEF70010E09E970E7
:05003600F20A80EF2238
:1007A300900609EBF0A3EAF0A3E9F0A3E0FBA3E0D2
:1007B300FAA3E0F91204A1700302084F900609E0BE
:1007C300FBA3E0FAA3E0F91204A1700302085B9013
:1007D300060CE0F9A3E0FAA3E0A3C9F0A3EAF0A3AF
:1007E300E9F0900609A3E0FAA3E0F9900612EBF012
:1007F300A3EAF0A3E9F090060FE0FBA3E0FAA3E07D
:10080300F91204A1FF6026900612E0FBA3E0FAA30D
:10081300E0F91204A16F701590061075F00112042F
:10082300BA900613E475F0011204BA80C990060F5A
:10083300E0FBA3E0FAA3E0F91204A17002800D909B
:10084300060AE475F0011204BA0207BF900609E034
:0F085300FBA3E0FAA3E0F9227B007A00790022F0
:1004E600BB010CE58229F582E5833AF583E02250CB
:1004F60006E92582F8E622BBFE06E92582F8E22215
:0D050600E58229F582E5833AF583E493222E
:10051300BB010689828A83F0225002F722BBFE01C7
:02052300F322C1
:10052500F8E0FBA3A3E0F925F0F0E582158270025F
:070535001583E0FA38F02203
:09053C00EBF0A3EAF0A3E9F022C0
:10054500D083D082F8E4937012740193700DA3A345
:1005550093F8740193F5828883E473740293686059
:06056500EFA3A3A380DF59
:100D7600EFB40A07740D120D81740A309811A89900
:100D8600B8130CC2983098FDA899C298B811F630DD
:070D960099FDC299F59922B5
:00000001FF
