:030000000206589D
:0C065800787FE4F6D8FD75810702069F4C
:1000460041542B43574A41503D226968222C22795C
:100056006978696E67313233343536220041542B64
:1000660043574D4F44453D330041542B52535400A2
:1000760041542B43575141500041542B434950534F
:10008600544152543D22544350222C223139322EAF
:100096003136382E312E313034222C353030300086
:1000A60041542B43495053454E440041542B434938
:1000B600504D4F44453D310041542B434950434C2C
:1000C6004F534500313233343536373839005765AA
:1000D6006C636F6D6520746F204C534520535455E7
:1000E60044494F2C0D0A00616161004F4B00415499
:1000F6000041540A004F4B2C5375636365656420B9
:1001060045737461626C69736820636F6E6E6563B4
:1001160074696F6E2077697468204553503832369B
:10012600360D0A004F4B2C45535038323636206870
:100136006173206265656E20736574206173205358
:10014600746174696F6E204D6F64650D0A006E6F81
:10015600206368616E6765004F4B2C53756363655A
:1001660065642065737461626C69736820636F6E81
:100176006E656374696F6E20776974682057694687
:10018600692041500D0A004C696E6B6564004F4B47
:100196002C537563636565642065737461626C696D
:1001A600736820636F6E6E656374696F6E2077691E
:1001B6007468205443502073657665720D0A0053A7
:1001C600454E44204F4B00436F6E67726174756CE9
:1001D6006174696F6E732C20596F752063616E2090
:1001E60073656E6420636F6D6D616E6473207468F1
:1001F600726F756768205443502073657665722068
:100206006E6F770D0A00776F63616F6E696D610AB5
:1002160000746F6F6F0A0077616E67646179650DB0
:090226000A006F6B0065727200A2
:1004890043010D6968004D0004796978696E673127
:100499003233343536004E01E03139322C313638B9
:1004A9002C312C3130340042010B138844000000F8
:1004B900000000604A0110474554202F2048545439
:1004C900502F312E310D0A486F73743A2031393269
:1004D9002E3136382E312E3130340D0A557365726E
:1004E9002D4167656E743A206162630D0A436F6E30
:1004F9006E656374696F6E3A20636C6F73650D0A7C
:10050900006086015A504F5354202F2048545450AC
:100519002F312E310D0A486F73743A203139322E3A
:100529003136382E312E3130340D0A557365722D1E
:100539004167656E743A206162630D0A436F6E7498
:10054900656E742D747970653A20746578742F70AE
:100559006C61696E0D0A436F6E74656E742D4C651E
:100569006E6774683A31300D0A0D0A616263646519
:10057900666768696A0D0A436F6E6E656374696FB1
:0F0589006E3A20636C6F73650D0A004101EE003E
:10075C00E4900600F0A3F078027C067D017BFF7A22
:10076C00027928FE7F031202FF78057C067D017B4F
:10077C00FF7A02792B7E007F041202FFE4FFFE7BDE
:10078C00017A0179EF12002674ED2FF58274013E87
:10079C00F583E0B46F1174EE2FF58274013EF5838E
:0907AC00E0B46B037F01227F30F1
:0107B5002221
:1006E400EE706BEF14B4070050649006FC75F003D1
:1006F400A4C58325F0C583730207110207190207F5
:100704002A02073202073A02074202074A7BFF7AAB
:10071400007946803F7BFF7A0079631209A57BFF4D
:100724007A00796F802E7BFF7A00797680267BFFB2
:100734007A00797F801E7BFF7A0079A680167BFF82
:100744007A0079B1800E7BFF7A0079BE80067BFF48
:080754007A00796F1209A52259
:10093400EE7018EF24FE600B0470107B017A0179CD
:1009440010800E7B017A01795A80067BFF7A007948
:050954006F1209A5224D
:10000300EF1FAA0670011E4A60107C007DFAED1DE9
:0A001300AA0470011C4A60E880F4A2
:01001D0022C0
:10036A00D2A61208E1D2AC75AF01D2AF7FE87E0304
:10037A001209597BFF7A0079CA1208AE7BFF7A000C
:10038A0079D41208AE7BFF7A0079ED801E120876C6
:10039A00401E1209817BFF7A0079F41207FB7FF471
:1003AA007E011209597BFF7A0079F71208AE80DDC7
:1003BA001209817BFF7A0079FB1208AEC2C81208C3
:1003CA007640107F027E001206E47FF47E01120955
:1003DA005980EB1209817BFF7A01792A1208AE1241
:1003EA000876C0D07BFF7A01795412087CD0F0A03D
:1003FA00F750107F017E001206E47FD07E071209B3
:10040A005980DCC2C91209817BFF7A01795E120820
:10041A00AE7BFF7A01798D12087C40107F047E0042
:10042A001206E47FB87E0B12095980E51209817B16
:10043A00FF7A0179941208AED2C8D2C97BFF7A0139
:10044A0079C512087C402C7F067E001206E47F6480
:10045A007E001209597F057E001206E47FF47E01B0
:10046A001209597F017E001209347FF47E011209B4
:0F047A005980C91209817BFF7A0179CD0208AE42
:10090D00E49005EFF0A3F07BFF7A02790C1208AEAC
:10091D0012036A7BFF7A0279171208AE7BFF7A0207
:07092D00791D1208AE80F5F0
:060876007BFF7A0079F11E
:10087C009005F1EBF0A3EAF0A3E9F09005F1E0F9B3
:10088C00A3E0FAA3E09005F7C9F0A3EAF0A3E9F01E
:10089C007B017A007911120599E94A4B6002D32247
:0208AC00C32265
:0F0981007FFA900011E4F0A3DFFCE49001EEF0A8
:010990002244
:0300230002083997
:10083900C0E0C083C082C0D0C2AC309820C29890BA
:1008490001EEE02411F582E43400F583E599F09096
:1008590001EEE004F0E0D394FA4002E4F0309902AA
:0D086900C299D2ACD0D0D082D083D0E03282
:030043000207B6FB
:1007B600C0E0C083C082C0D075AF00E59A30E021AA
:1007C600539AFE9001EEE02411F582E43400F5839D
:1007D600E59BF09001EEE004F0E0D394FA4002E4E9
:1007E600F0E59A30E103539AFD75AF01D0D0D0827F
:0507F600D083D0E032C9
:0309A5000207FB4B
:1008E10053877F759850438E40538EFE53890F4333
:1008F1008920758BFD758DFDC2ABD28E759A5043E3
:0C0901008E0475D7C775D6FE438E1022F9
:08003B008F993099FDC2992252
:1008AE009005F1EBF0A3EAF0A3E9F09005F1E0FB7F
:1008BE00A3E0FAA3E0F912032560179005F1A3E473
:1008CE0075F00112033EA9F0FA120325FF12003B48
:0308DE0080D9229C
:0B0991008F9BE59A30E1FB539AFD229A
:1007FB009005F1EBF0A3EAF0A3E9F0E4F5AF900577
:10080B00F1E0FBA3E0FAA3E0F912032560179005D2
:10081B00F1A3E475F00112033EA9F0FA120325FFD0
:0E082B0012000080D97F0A12000075AF012272
:04001E007F02DFFE80
:0100220022BB
:08099C007F127EEBDEFEDFFCA2
:0109A4002230
:10095900AD07AC06ED1DAE0470011C4E6005120911
:040969009C80F1225B
:10096D00AD07AC06ED1DAE0470011C4E6005120006
:04097D001E80F122C5
:1006640002090DE493A3F8E493A34003F68001F296
:1006740008DFF48029E493A3F85407240CC8C33397
:10068400C4540F4420C8834004F456800146F6DF66
:10069400E4800B0102040810204080900489E47E69
:1006A400019360BCA3FF543F30E509541FFEE4935B
:1006B400A360010ECF54C025E060A840B8E493A322
:1006C400FAE493A3F8E493A3C8C582C8CAC583CA4D
:1006D400F0A3C8C582C8CAC583CADFE9DEE780BE05
:010598000062
:10022F00E709F608DFFA8046E709F208DFFA803EB1
:10023F0088828C83E709F0A3DFFA8032E309F6089E
:10024F00DFFA8078E309F208DFFA807088828C8306
:10025F00E309F0A3DFFA806489828A83E0A3F608BA
:10026F00DFFA805889828A83E0A3F208DFFA804C94
:10027F0080D280FA80C680D4806980F2803380106B
:10028F0080A680EA809A80A880DA80E280CA8033D4
:10029F0089828A83ECFAE493A3C8C582C8CCC5834C
:1002AF00CCF0A3C8C582C8CCC583CCDFE9DEE7801C
:1002BF000D89828A83E493A3F608DFF9ECFAA9F09B
:1002CF00EDFB2289828A83ECFAE0A3C8C582C8CCF1
:1002DF00C583CCF0A3C8C582C8CCC583CCDFEADE0A
:1002EF00E880DB89828A83E493A3F208DFF980CC6C
:1002FF0088F0EF60010E4E60C388F0ED2402B40465
:10030F000050B9F582EB2402B4040050AF2323450B
:06031F00822390027F73AF
:10032500BB010689828A83E0225002E722BBFE02D6
:09033500E32289828A83E4932209
:10033E00A3F8E0C5F025F0F0E58215827002158372
:06034E00E0C838F0E822CF
:10002600E4FFFE120325600C0FEF70010E09E97064
:05003600F20A80EF2238
:100599009005F4EBF0A3EAF0A3E9F0A3E0FBA3E0F4
:1005A900FAA3E0F912032570030206459005F4E069
:1005B900FBA3E0FAA3E0F9120325700302065190A8
:1005C90005F7E0F9A3E0FAA3E0A3C9F0A3EAF0A3D1
:1005D900E9F09005F4A3E0FAA3E0F99005FDEBF04A
:1005E900A3EAF0A3E9F09005FAE0FBA3E0FAA3E09F
:1005F900F9120325FF60269005FDE0FBA3E0FAA3AD
:10060900E0F91203256F70159005FB75F0011203CF
:10061900549005FEE475F00112035480C99005FA5F
:10062900E0FBA3E0FAA3E0F91203257002800D9024
:1006390005F5E475F0011203540205B59005F4E0DF
:0F064900FBA3E0FAA3E0F9227B007A00790022FC
:10035400C5F0F8A3E028F0C5F0F8E5821582700234
:060364001583E038F022D1
:00000001FF
